{
  "_format": "hh-sol-artifact-1",
  "contractName": "Identity",
  "sourceName": "contracts/Identity.sol",
  "abi": [
    {
      "inputs": [
        {
          "internalType": "string",
          "name": "_username",
          "type": "string"
        }
      ],
      "name": "register",
      "outputs": [],
      "stateMutability": "nonpayable",
      "type": "function"
    },
    {
      "inputs": [
        {
          "internalType": "address",
          "name": "",
          "type": "address"
        }
      ],
      "name": "users",
      "outputs": [
        {
          "internalType": "string",
          "name": "username",
          "type": "string"
        },
        {
          "internalType": "address",
          "name": "userAddress",
          "type": "address"
        }
      ],
      "stateMutability": "view",
      "type": "function"
    }
  ],
  "bytecode": "0x6080604052348015600f57600080fd5b506109668061001f6000396000f3fe608060405234801561001057600080fd5b50600436106100365760003560e01c8063a87430ba1461003b578063f2c298be1461006c575b600080fd5b61005560048036038101906100509190610362565b610088565b60405161006392919061042e565b60405180910390f35b61008660048036038101906100819190610593565b610154565b005b60006020528060005260406000206000915090508060000180546100ab9061060b565b80601f01602080910402602001604051908101604052809291908181526020018280546100d79061060b565b80156101245780601f106100f957610100808354040283529160200191610124565b820191906000526020600020905b81548152906001019060200180831161010757829003601f168201915b5050505050908060010160009054906101000a900473ffffffffffffffffffffffffffffffffffffffff16905082565b600073ffffffffffffffffffffffffffffffffffffffff166000803373ffffffffffffffffffffffffffffffffffffffff1673ffffffffffffffffffffffffffffffffffffffff16815260200190815260200160002060010160009054906101000a900473ffffffffffffffffffffffffffffffffffffffff1673ffffffffffffffffffffffffffffffffffffffff1614610224576040517f08c379a000000000000000000000000000000000000000000000000000000000815260040161021b90610688565b60405180910390fd5b60405180604001604052808281526020013373ffffffffffffffffffffffffffffffffffffffff168152506000803373ffffffffffffffffffffffffffffffffffffffff1673ffffffffffffffffffffffffffffffffffffffff16815260200190815260200160002060008201518160000190816102a2919061085e565b5060208201518160010160006101000a81548173ffffffffffffffffffffffffffffffffffffffff021916908373ffffffffffffffffffffffffffffffffffffffff16021790555090505050565b6000604051905090565b600080fd5b600080fd5b600073ffffffffffffffffffffffffffffffffffffffff82169050919050565b600061032f82610304565b9050919050565b61033f81610324565b811461034a57600080fd5b50565b60008135905061035c81610336565b92915050565b600060208284031215610378576103776102fa565b5b60006103868482850161034d565b91505092915050565b600081519050919050565b600082825260208201905092915050565b60005b838110156103c95780820151818401526020810190506103ae565b60008484015250505050565b6000601f19601f8301169050919050565b60006103f18261038f565b6103fb818561039a565b935061040b8185602086016103ab565b610414816103d5565b840191505092915050565b61042881610324565b82525050565b6000604082019050818103600083015261044881856103e6565b9050610457602083018461041f565b9392505050565b600080fd5b600080fd5b7f4e487b7100000000000000000000000000000000000000000000000000000000600052604160045260246000fd5b6104a0826103d5565b810181811067ffffffffffffffff821117156104bf576104be610468565b5b80604052505050565b60006104d26102f0565b90506104de8282610497565b919050565b600067ffffffffffffffff8211156104fe576104fd610468565b5b610507826103d5565b9050602081019050919050565b82818337600083830152505050565b6000610536610531846104e3565b6104c8565b90508281526020810184848401111561055257610551610463565b5b61055d848285610514565b509392505050565b600082601f83011261057a5761057961045e565b5b813561058a848260208601610523565b91505092915050565b6000602082840312156105a9576105a86102fa565b5b600082013567ffffffffffffffff8111156105c7576105c66102ff565b5b6105d384828501610565565b91505092915050565b7f4e487b7100000000000000000000000000000000000000000000000000000000600052602260045260246000fd5b6000600282049050600182168061062357607f821691505b602082108103610636576106356105dc565b5b50919050565b7f5573657220616c72656164792065786973747300000000000000000000000000600082015250565b600061067260138361039a565b915061067d8261063c565b602082019050919050565b600060208201905081810360008301526106a181610665565b9050919050565b60008190508160005260206000209050919050565b60006020601f8301049050919050565b600082821b905092915050565b60006008830261070a7fffffffffffffffffffffffffffffffffffffffffffffffffffffffffffffffff826106cd565b61071486836106cd565b95508019841693508086168417925050509392505050565b6000819050919050565b6000819050919050565b600061075b6107566107518461072c565b610736565b61072c565b9050919050565b6000819050919050565b61077583610740565b61078961078182610762565b8484546106da565b825550505050565b600090565b61079e610791565b6107a981848461076c565b505050565b5b818110156107cd576107c2600082610796565b6001810190506107af565b5050565b601f821115610812576107e3816106a8565b6107ec846106bd565b810160208510156107fb578190505b61080f610807856106bd565b8301826107ae565b50505b505050565b600082821c905092915050565b600061083560001984600802610817565b1980831691505092915050565b600061084e8383610824565b9150826002028217905092915050565b6108678261038f565b67ffffffffffffffff8111156108805761087f610468565b5b61088a825461060b565b6108958282856107d1565b600060209050601f8311600181146108c857600084156108b6578287015190505b6108c08582610842565b865550610928565b601f1984166108d6866106a8565b60005b828110156108fe578489015182556001820191506020850194506020810190506108d9565b8683101561091b5784890151610917601f891682610824565b8355505b6001600288020188555050505b50505050505056fea2646970667358221220e343e808fe736cf72ff9b473fed907d208ad8c02589eb7819ef9b3a0fd12fe2a64736f6c634300081c0033",
  "linkReferences": {},
  "deployedLinkReferences": {}
}